:060000000A128A110C280F
:10000800FE00030EF0000A08F1000A168A115F2D9F
:100018000A128A110F288313C530FD001430FE0020
:10002800DE30FF00A03084000A168A117C240A12F0
:100038008A110A128A1503200A128A11F9000A1273
:100048008A1504200A128A11FA0083160313C501BF
:10005800C601C701C801C901CA01CB01CC01CD0144
:10006800CE01CF0183120313E901EA01EB01EC0190
:10007800FB0183010A128A155A2C83120313E40028
:100088000A168A115A260A128A1133308316031364
:100098004406031D502851280F2A0A168A11542491
:1000A8000A128A113E3083120313A0009130A10076
:1000B8008030A2000A168A112C250A128A1183128E
:1000C80003136A08D8005807A03E84008313000869
:1000D800A000840A00088403A1008630A2000A1642
:1000E8008A112C250A128A11373083120313A000B3
:1000F8009130A100C030A2000A168A112C250A12DC
:100108008A11C630F8000A30F2000030F30083127A
:1001180003136C08D800D9015808F4005908F500F1
:100128000A168A11B8260A128A117208303E0A166F
:100138008A118B240A128A11C730F8000A30F2009B
:100148000030F300831203136C08D800D901580853
:10015800F4005908F5000A168A1103260A128A11B2
:100168007208303E0A168A118B240A128A11C83086
:10017800F8003A300A168A118B240A128A11C930FB
:10018800F8000A30F2000030F300831203136B0802
:10019800D800D9015808F4005908F5000A168A1140
:1001A800B8260A128A117208303E0A168A118B2460
:1001B8000A128A11CA30F8000A30F2000030F3003F
:1001C800831203136B08D800D9015808F4005908A2
:1001D800F5000A168A1103260A128A117208303E9F
:1001E8000A168A118B240A128A11FF308316031308
:1001F800C400333083120313DA00BB30D900DF3078
:10020800D800D80B0529D90B0529DA0B05290A16B8
:100218008A1154240A128A11EB3083120313A000A6
:100228009030A1008030A2000A168A112C250A12EB
:100238008A11533083120313A0009130A100C030FB
:10024800A2000A168A112C250A128A112430831258
:100258000313A0009030A1009030A2000A168A1162
:100268002C250A128A113C30F200831203136C0801
:100278000A168A1165240A128A11831203136B075E
:1002880083160313CB00FB007B0883120313D800EB
:10029800D901DA01DB015B08F5005A08F4005908B6
:1002A800F3005808F20001300A128A1557210A1281
:1002B8008A11750883120313B1007408B00073081B
:1002C800AF007208AE003E30AD00D730AC000A3047
:1002D800AB003D30AA000A128A1127240A128A119B
:1002E800831203132D08C7002C08C6002B08C5006D
:1002F8002A08C4000A128A1169270A128A1183126D
:100308000313440883160313CE007B0883120313D8
:10031800D800D901DA01DB015B08F5005A08F400BE
:100328005908F3005808F20001300A128A155721BB
:100338000A128A11750883120313B1007408B000F9
:100348007308AF007208AE003D30AD00F530AC0068
:10035800C230AB008F30AA000A128A1127240A1271
:100368008A11831203132D08C7002C08C6002B0816
:10037800C5002A08C4000A128A1169270A128A11BC
:1003880083120313440883160313CD007B088312DA
:100398000313D800D901DA01DB015B08F5005A081C
:1003A800F4005908F3005808F20001300A128A15BF
:1003B80057210A128A11750883120313B1007408B1
:1003C800B0007308AF007208AE003E30AD00D73001
:1003D800AC000A30AB003D30AA000A128A1127246B
:1003E8000A128A11831203132D08C7002C08C600AD
:1003F8002B08C5002A08C4000A128A1169270A12A4
:100408008A1183120313440883160313CC00831242
:100418000313121507151F3083126406031D152ACE
:10042800162A1A2A121107114430FA003C30F20039
:100438006C080A168A1165240A128A11831203139A
:100448006B07FB0008306A0203182B2A2C2A9B2A08
:10045800831603134B0883120313D800D9015908D4
:10046800DB00831603134E08831203135802DA00C5
:10047800031CDB035B08803A803C031D452A5A08AD
:100488007B02031C482A492A572A6B30831203131C
:10049800A0009130A1008A30A2000A168A112C25EA
:1004A8000A128A11682B831603134B08831203134D
:1004B800D800D9015908DB00831603134E088312AC
:1004C80003135802DA00031CDB035B08DD00831604
:1004D80003134C08831203135A02DC00031CDD03C8
:1004E8005D08803A803C031D7B2A5C087B02031C64
:1004F8007E2A7F2A8D2A593083120313A000913057
:10050800A1008A30A2000A168A112C250A128A1123
:10051800682B753083120313A0009130A1008A3034
:10052800A2000A168A112C250A128A11682B083093
:100538006A06031DA02AA12A4B2B7B08D800D901E3
:10054800DA01DB015B08F5005A08F4005908F300EA
:100558005808F20001300A128A1557210A128A1126
:10056800750883120313CF007408CE007308CD00FA
:100578007208CC00831603134B0883120313DC00A4
:10058800DD01DE01DF015F08F5005E08F4005D08AB
:10059800F3005C08F20001300A128A1557210A128A
:1005A8008A11750883120313CB007408CA007308F4
:1005B800C9007208C800831603134B08831203137B
:1005C800E000E101E201E3016308F5006208F400DC
:1005D8006108F3006008F20001300A128A155721F9
:1005E8000A128A11750883120313B1007408B00047
:1005F8007308AF007208AE003E30AD00CC30AC00DE
:10060800CC30AB00CD30AA000A128A1127240A1276
:100618008A11831203132D08C7002C08C6002B0863
:10062800C5002A08C4000A168A11BA240A128A11B7
:10063800831203134708D3004608D2004508D100A7
:100648004408D0000A128A15B3200A128A11031C22
:100658002E2B2F2B3D2B593083120313A0009130E2
:10066800A1008A30A2000A168A112C250A128A11C2
:10067800682B753083120313A0009130A1008A30D3
:10068800A2000A168A112C250A128A11682B093031
:100698006A06031D502B512B5D2B7530A00091303D
:1006A800A1008A30A2000A168A112C250A128A1182
:1006B800682B6B30A0009130A1008A30A2000A1686
:1006C8008A112C250A128A11C630F8000A30F20065
:1006D8000030F300831203136C08D800D9015808BE
:1006E800F4005908F5000A168A11B8260A128A1168
:1006F8007208303E0A168A118B240A128A11C730F2
:10070800F8000A30F2000030F300831203136C087B
:10071800D800D9015808F4005908F5000A168A11BA
:1007280003260A128A117208303E0A168A118B248F
:100738000A128A11C830F8003A300A168A118B2436
:100748000A128A11C930F8000A30F2000030F300AA
:10075800831203136B08D800D9015808F40059080C
:10076800F5000A168A11B8260A128A117208303E54
:100778000A168A118B240A128A11CA30F8000A3024
:10078800F2000030F300831203136B08D800D9017C
:100798005808F4005908F5000A168A1103260A12A7
:1007A8008A117208303E0A168A118B240A128A119D
:1007B800831203136C08031DE22BE32B262C6B0812
:1007C800031DE72BE82B262C0A168A1154240A123B
:1007D8008A1183120313071187140030A000903088
:1007E800A1008030A2000A168A112C250A128A114B
:1007F800643083120313A0009030A100C030A2001F
:100808000A168A112C250A128A11663083120313DC
:10081800DA007630D900C030D800D80B112CD90BAB
:10082800112CDA0B112C00008312031387100130EE
:10083800FA00113083160313C4000A168A115424CF
:100848000A128A110800831203132D08B70080309A
:10085800B7052D08B2003207BD00AC1F342C352C6B
:10086800362C3D143D0803193A2C3B2C4A2C3D0AE2
:10087800031D3F2C402C482C0030AD000030AC004C
:100888000030AB000030AA00AC17522C0030AD008D
:100898000030AC000030AB000030AA0031088039CD
:1008A800B7063108B2003207B800B01F5C2C5D2CC7
:1008B8005E2C381438080319622C632C722C380A01
:1008C800031D672C682C702C0030B1000030B0007C
:1008D8000030AF000030AE00B0177A2C0030B10005
:1008E8000030B0000030AF000030AE003808031907
:1008F8007E2C7F2C842C3D08031D832C842C8D2C6E
:100908000030AD000030AC000030AB000030AA0071
:10091800682F2A08F20030080A168A1103250A12DD
:100928008A11730883120313C3007208C2004208B5
:10093800B200B301B401B5013508BC003408BB00EE
:100948003308BA003208B9004308B200B301B40151
:10095800B5013508C1003408C0003308BF003208AB
:10096800BE002B08F2002F080A168A1103250A1266
:100978008A11730883120313C3007208C200420865
:10098800B200B301B401B5013208B9073308031145
:100998000318013E0319D12CBA07340803110318B0
:1009A800013E0319D82CBB07350803110318013E73
:1009B8000319DF2CBC074308B200B301B401B50129
:1009C8003208BE07330803110318013E0319ED2C42
:1009D800BF07340803110318013E0319F42CC0079C
:1009E800350803110318013E0319FB2CC1072C0815
:1009F800F2002E080A168A1103250A128A117308B2
:100A080083120313C3007208C2004208B200B30184
:100A1800B401B5013208B907330803110318013EC0
:100A28000319172DBA07340803110318013E0319D7
:100A38001E2DBB07350803110318013E0319252D88
:100A4800BC074308B200B301B401B5013208BE07C0
:100A5800330803110318013E0319332DBF07340867
:100A680003110318013E03193A2DC0073508031175
:100A78000318013E0319412DC1070830B2000310C5
:100A8800B90DBA0DBB0DBC0DB20B432D2B08F200EE
:100A98002E080A168A1103250A128A11730883126E
:100AA8000313C3007208C2004208B2004308B3002F
:100AB800B401B5013208B907330803110318013E20
:100AC8000319672DBA07340803110318013E0319E7
:100AD8006E2DBB07350803110318013E0319752D48
:100AE800BC072A08F2002F080A168A1103250A12E1
:100AF8008A11730883120313C3007208C2004208E4
:100B0800B2004308B300B401B5013208B90733088D
:100B180003110318013E0319922DBA073408031173
:100B28000318013E0319992DBB0735080311031853
:100B3800013E0319A02DBC070830B2000310B90DFF
:100B4800BA0DBB0DBC0DB20BA22D2A08F2002E085F
:100B58000A168A1103250A128A11730883120313CD
:100B6800C3007208C2004208B2004308B300B401CF
:100B7800B5013208B907330803110318013E0319F8
:100B8800C62DBA07340803110318013E0319CD2DE9
:100B9800BB07350803110318013E0319D42DBC0700
:100BA8002B08F20030080A168A1103250A128A1146
:100BB800730883120313C3007208C2004208B2000C
:100BC8004308B300B401B5013208BE073308031166
:100BD8000318013E0319F12DBF0734080311031848
:100BE800013E0319F82DC007350803110318013E0B
:100BF8000319FF2DC1072C08F2002F080A168A11C5
:100C080003250A128A11730883120313C30072089A
:100C1800C2004208B2004308B300B401B50132086B
:100C2800BE07330803110318013E03191C2EBF0722
:100C3800340803110318013E0319232EC007350891
:100C480003110318013E03192A2EC1072C08F200CC
:100C580030080A168A1103250A128A1173088312AA
:100C68000313C3007208C2004208B2004308B3006D
:100C7800B401B50108300310B20DB30DB40DB50DB4
:100C8800FF3E031D3F2E3208BE0733080311031829
:100C9800013E0319502EBF07340803110318013E03
:100CA8000319572EC007350803110318013E03190D
:100CB8005E2EC1073908B2003A08B3003B08B400F9
:100CC8003C08B50018300310B50CB40CB30CB20CCA
:100CD800FF3E031D672E3208BE07330803110318B1
:100CE800013E0319782EBF07340803110318013E8B
:100CF80003197F2EC007350803110318013E031995
:100D0800862EC1070830B2000310B90DBA0DBB0D0D
:100D1800BC0DB20B882E3D083807B200B301B30DE5
:100D28003208823EC20033080318013EFF3EC3006A
:100D3800BA2E0130B2000310BE0DBF0DC00DC10D9B
:100D4800B20B9F2EBC1FA92EAA2EAB2E3E1401302B
:100D5800B2000310B90DBA0DBB0DBC0DB20BAD2E10
:100D6800FF30C2070318C30AFF30C307C01FBD2ED8
:100D7800BE2E9D2EB801BC1FC22EC32EDF2EFF3003
:100D88003905B200FF303A05B300FF303B05B40027
:100D98007F303C05B50035083404330432040319A8
:100DA800D62ED72EDA2E0130B800DF2E3E1CDD2ECF
:100DB800DE2EDF2ED72E38080319E32EE42E152F4A
:100DC8000130BE07003003180130BF070030031898
:100DD8000130C007003003180130C107411CF52E4F
:100DE800F62E152F3E08B2003F08B3004008B400A5
:100DF8004108B5000130B600350DB50CB40CB30C84
:100E0800B20CB60B002F3508C1003408C0003308F7
:100E1800BF003208BE000130C2070318C30A003001
:100E2800C3074308803AFF0080307F02031D1E2F4E
:100E3800FF304202031C212F222F2D2F7F308312D7
:100E48000313C1008030C0000030BF000030BE0076
:100E58005E2F831203134308803AFF0080307F021D
:100E6800031D382F0130420203183B2F3C2F482F17
:100E7800003083120313C1000030C0000030BF00EF
:100E88000030BE00B7015E2F831203134208BD0075
:100E9800FF30BE05FF30BF057F30C0050030C105FB
:100EA8003D1C572F582F592FC0173D08B20003106B
:100EB800320CC1003708C1044108AD004008AC003D
:100EC8003F08AB003E08AA00080003108312031372
:100ED800460D470DF7007708031D732F742F7D2FDC
:100EE8000030C7000030C6000030C5000030C40024
:100EF800DE2F4408C8004508C9004608CA0047084C
:100F0800CB001F300310CB0CCA0CC90CC80CFF3E19
:100F1800031D862F4808F600C617FF30C405FF30AA
:100F2800C505FF30C6050030C7059630F702F71F24
:100F38009E2F9F2FB72F7708803A973E0318A52F2B
:100F4800A62FA72F742F01300310C70CC60CC50C91
:100F5800C40CFF3E031DA82F0130F707031DB52F52
:100F6800B62FA72FCE2F20307702031CBC2FBD2F02
:100F7800C92F742F0130C8000310C40DC50DC60D4C
:100F8800C70DC80BC02F0130F7027708031DCD2FFE
:100F9800CE2FBE2F76080319D22FD32FDE2FC409E8
:100FA800C509C609C709C40A0319C50A0319C60A27
:100FB8000319C70A0800F5007218E32FE72F8312F8
:100FC80003130915EA2F8312031309117508880002
:100FD8008914A630F300F30BEF2F000083120313DC
:100FE80089101B30F4009E30F300F30BF92FF40B3B
:060FF800F92F00000800C3
:1010060001340134831603138801091189100A1665
:101016008A11AC250A128A15080083120313A70049
:101026002230831603134406031D1A281B2824287E
:101036000A168A1154240A128A15FF3083160313DE
:10104600C4003730831203132706031D2B282C28D0
:101056003C280A168A1154240A128A150130831272
:101066000313E90704306906031D3A283B283C2888
:10107600E9019C30A0009030A1008030A2000A1641
:101086008A112C250A128A15C030F8002A300A1651
:101096008A118B240A128A15831203136908A50084
:1010A6002507B83E840083130008A000840A0008C0
:1010B6008403A100C230A2000A168A112C250A1246
:1010C6008A150530F2000030F30083120313690815
:1010D600013EF400003003180130F5000A168A11AB
:1010E60003260A128A15720883120313A500250720
:1010F600B83E840083130008A000840A0008840315
:10110600A1009230A2000A168A112C250A128A150D
:101116000530F2000030F300831203136908023E23
:10112600F400003003180130F5000A168A11032670
:101136000A128A15720883120313A5002507B83E02
:10114600840083130008A000840A00088403A10019
:10115600D230A2000A168A112C250A128A15080016
:101166000030831203134C05D40000304D05D50022
:1011760080304E05D6007F304F05D70057085604FD
:1011860055045404031DC828C928D1280030CF00AF
:101196000030CE000030CD000030CC0000305005CD
:1011A600D40000305105D50080305205D6007F307E
:1011B6005305D7005708560455045404031DE42864
:1011C600E528ED280030D3000030D2000030D100F1
:1011D6000030D000CF1FF028F12815290030D400A8
:1011E6000030D5000030D6008030D7004C08D4023D
:1011F6004D08031C4D0F00290129D5024E08031C7A
:101206004E0F06290729D6024F08031C4F0F0C293B
:101216000D29D7025708CF005608CE005508CD0035
:101226005408CC00D31F182919293D290030D400B1
:101236000030D5000030D6008030D7005008D402E8
:101246005108031C510F28292929D5025208031CCD
:10125600520F2E292F29D6025308031C530F342967
:101266003529D7025708D3005608D2005508D100B1
:101276005408D0008030CF068030D30653084F0282
:10128600031D4F2952084E02031D4F2951084D02D6
:10129600031D4F2950084C0203185229532955297A
:1012A600031056290314080083120313A40024080C
:1012B60003195E295F297329F51F6229632973299A
:1012C6007209A6007309A7007409A8007509A90088
:1012D600A60A0319A70A0319A80A0319A90A7B294A
:1012E6007508A9007408A8007308A7007208A6006C
:1012F6007508740473047204031D822983298C29DA
:101306000030F5000030F4000030F3000030F20049
:101316000C2A9630A5009A290130A5070130031042
:10132600A90CA80CA70CA60CFF3E031D9229FE30A3
:101336002905031D9F29A0298F29BA290130A50750
:101346000130A607003003180130A7070030031844
:101356000130A807003003180130A9070130031037
:10136600A90CA80CA70CA60CFF3E031DB229FF3042
:101376002905031DBF29C029A129CC290130A502B1
:101386000130A0000310A60DA70DA80DA90DA00BF6
:10139600C529A81BCF29D029D62902302502031832
:1013A600D529D629C1292518D929DA29E229FF30D4
:1013B600A605FF30A7057F30A805FF30A905031055
:1013C600A50C2508A000A101A201A3011830031055
:1013D600A00DA10DA20DA30DFF3E031DEA292008B5
:1013E600A6042108A7042208A8042308A90424089F
:1013F6000319FE29FF29042AF51F022A032A042AB3
:10140600A9172908F5002808F4002708F30026087C
:10141600F200080083120313A7001130831603138A
:101426004406031D172A182A212A0A168A1154244B
:101436000A128A15FF3083160313C400373083124D
:1014460003132706031D282A292A392A0A168A1170
:1014560054240A128A15013083120313EA070C304A
:101466006A06031D372A382A392AEA014430A000C1
:101476009030A1008030A2000A168A112C250A128B
:101486008A15C030F8002A300A168A118B240A12EF
:101496008A150A30831203136A020318532A542A40
:1014A600922A6A08A5002507A03E84008313000837
:1014B600A000840A00088403A100C130A2000A1615
:1014C6008A112C250A128A15831203136A08A500AD
:1014D6002507A23E840083130008A000840A0008A2
:1014E6008403A1009130A2000A168A112C250A1243
:1014F6008A15831203136A08A5002507A43E8400F3
:1015060083130008A000840A00088403A100D130D8
:10151600A2000A168A112C250A128A15132B0A30E4
:101526006A06031D972A982AD42A6A08A500250761
:10153600A03E840083130008A000840A00088403E8
:10154600A100C130A2000A168A112C250A128A159A
:10155600831203136A08A5002507A23E840083139D
:101566000008A000840A00088403A1009130A200AC
:101576000A168A112C250A128A15831603132008C7
:1015860083120313A0008316031321088312031387
:10159600A100D130A2000A168A112C250A128A153A
:1015A600132B0B306A06031DD92ADA2A132B6A0875
:1015B600A5002507A03E840083130008A000840A26
:1015C60000088403A100C130A2000A168A112C2546
:1015D6000A128A1583160313200883120313A00028
:1015E60083160313210883120313A1009130A2006E
:1015F6000A168A112C250A128A1583160313220845
:1016060083120313A0008316031323088312031304
:10161600A100D130A2000A168A112C250A128A15B9
:101626000800312CEC012130EB00592CEC0129305B
:10163600EB00592CEC012D30EB00592C6908003ACF
:101646000319192B013A0319152B033A0319192B00
:10165600013A03191D2B073A03191D2B592CEC01CE
:101666002B30EB00592CEC013230EB00592CEC01FD
:101676003930EB00592C6908003A0319362B013A28
:101686000319322B033A0319362B013A03193A2B65
:10169600073A03193A2B592CEC011A30EB00592C56
:1016A600EC011F30EB00592C6908003A03194F2B47
:1016B600013A03194F2B033A03194F2B013A031929
:1016C600532B073A0319532B592C0130EC001030D9
:1016D600EB00592C6908003A0319682B013A0319E3
:1016E600682B033A0319682B013A0319682B073A4A
:1016F6000319682B592C0130EC002430EB00592CCF
:101706006908003A03197E2B013A03197E2B033A26
:1017160003197E2B013A03197E2B073A03197E2BF8
:10172600592CEC012430EB00592C6908003A0319B6
:10173600532B013A0319532B033A0319532B013A3E
:101746000319942B073A0319942B592CEC011D30DD
:10175600EB00592C6908013A0319A92B033A03191E
:10176600A92B013A0319A92B073A0319A92B592CBE
:10177600EC012E30EB00592CEC013530EB00592CE6
:101786000130EC00EB01592C6908003A0319BF2B14
:10179600013A0319BB2B033A0319BF2B013A03196C
:1017A600C32B073A0319C32B592CEC011230EB005B
:1017B600592CEC011430EB00592C6908003A031936
:1017C600DC2B013A0319D82B033A0319DC2B013A17
:1017D6000319DC2B073A0319DC2B592CEC010630D4
:1017E600EB00592C6908003A0319F12B013A031949
:1017F600F12B033A0319F12B013A0319F12B073A9E
:101806000319F12B592CEC011030EB00592CEC018B
:101816001530EB00592C6908003A03190A2C013AD5
:101826000319062C033A03190A2C013A03194F2B04
:10183600073A03194F2B592C362B6908003A03191E
:10184600362B013A03191F2C033A0319362B013A9A
:101856000319362B073A0319362B592C8312031317
:101866006A08003A0319212B013A03193E2B033A61
:101876000319572B013A03196D2B073A0319832BCA
:10188600013A0319982B033A0319AD2B013A0319B0
:10189600C72B0F3A0319E02B013A0319F52B033A2C
:1018A60003190E2C013A0319202C592C08000A168C
:1018B6008A11A0240A128A15733083120313A0001A
:1018C6009030A1008130A2000A168A112C250A1236
:1018D6008A15263083120313A0009130A100C5306B
:1018E600A2000A168A112C250A128A155430831270
:1018F6000313A0009030A1009130A2000A168A11AD
:101906002C250A128A15CF2C003083160313D30018
:101916000030D2000B30D100B830D0000130831235
:101926000313E5000030E6000030E7000030E80071
:10193600650883160313D002831203136608031C7B
:10194600660FA62CA92C83160313D1028312031348
:101956006708031C670FB02CB32C83160313D2023F
:10196600831203136808031C680FBA2CBD2C831658
:101976000313D3028312031383160313500A031DA2
:10198600CE2C510A031DCE2C520A031DCE2C530A0F
:10199600031DCE2CCF2C912C01300A168A118C27D0
:1019A6000A128A152F3A031DD92CDA2C872C0A160F
:1019B6008A1154240A128A150A168A111D270A1238
:1019C6008A1501300A168A118C270A128A1583167F
:1019D6000313D600B830D4000B30D5000130D40242
:1019E6000030031CD503D502540A031DFE2C550AEC
:1019F600031DFE2CFF2CF12C99305606031D042DD9
:101A0600052D0F2D7A03031D092D0A2D0F2D0230EA
:101A1600FA002230C400962D99305606031D142D67
:101A2600152D4F2D02307A06031D1A2D1B2D4F2D15
:101A36000330FA000A168A1154240A128A158F30C6
:101A460083120313A0009030A1008030A2000A1672
:101A56008A112C250A128A15E03083120313A0007E
:101A66009030A100C030A2000A168A112C250A1255
:101A76008A15133083120313A0009130A100903011
:101A8600A2000A168A112C250A128A150A128A152C
:101A960014230A128A15962D2F305606031D542D2F
:101AA600552D622D44307A06031D5A2D5B2D622D6D
:101AB6000430FA008312031312150715962D962D7E
:101AC6008316031356080A128A150D220A128A155E
:101AD600E42C8316031356080A128A1510200A12DC
:101AE6008A15E42C2F30831603135606031D7C2D0E
:101AF6007D2D822D0430FA003330C400E42C1F30D3
:101B06005606031D872D882DA42D0130FA001130AD
:101B1600C400E42C8316031356080A128A114120C6
:101B26000A128A15E42C7A08013A0319632D033A3E
:101B360003196C2D013A0319752D073A03198D2DDA
:101B4600E42CE42C0A128A110C28831203132308AE
:101B5600F2008030F2052308A8002807F400A21F2F
:101B6600B52DB62DB72D741474080319BB2DBC2DD5
:101B7600CC2D740A031DC02DC12DC92D0030A30024
:101B86000030A2000030A1000030A000A217A3017F
:101B9600D42D0030A3000030A2000030A100003098
:101BA600A0002708F3008030F305730872060319B6
:101BB600DD2DDE2DDF2D72172708A8002807F3007C
:101BC600A61FE62DE72DE82D731473080319EC2DD7
:101BD600ED2DFD2D730A031DF12DF22DFA2D00308A
:101BE600A7000030A6000030A5000030A400A6170C
:101BF600A701052E0030A7000030A6000030A50082
:101C06000030A4007408730203180A2E0B2E2F2E20
:101C1600721F0E2E0F2E112E8030F2067408F5005C
:101C26007308F4007508F3002008F5002408A000E6
:101C36007508A4002108F5002508A1007508A5006F
:101C46002208F5002608A2007508A6002308F5005C
:101C56002708A3007508A700F5017308A800A901C5
:101C66002908AB0074082802AA00031CAB032B0842
:101C7600803AFF0080307F02031D432E1A302A026D
:101C8600031C462E472E802E83120313230822049C
:101C960021042004031D502E522E0130532E0030F5
:101CA600F5000030A3000030A2000030A100003093
:101CB600A0007308F400862E751C622E632E6C2E0F
:101CC600750883120313A8000310280C0138F500C9
:101CD6006E2E0310F50C83120313201C732E742E24
:101CE600752EF5170130A800230DA30CA20CA10C2C
:101CF600A00CA80B772E0130F40773087402031C9E
:101D0600852E862E5F2E721B892E8A2ED52E74085E
:101D1600031D8E2E8F2E9A2E003083120313A300DE
:101D26000030A2000030A1000030A000FF2F831277
:101D360003132408A007250803110318013E0319FD
:101D4600A52EA107260803110318013E0319AC2E80
:101D5600A207270803110318013E0319B32EA30790
:101D6600231CB62EB72E8B2F751CBA2EBB2EC22E59
:101D76007508A8000310280C0138F500C42E0310BE
:101D8600F50C201CC72EC82EC92EF5170130A80049
:101D9600230DA30CA20CA10CA00CA80BCB2E01307A
:101DA600F4078B2F831203132308803AFF002708BA
:101DB600803A7F02031DE92E26082202031DE92E22
:101DC60025082102031DE92E240820020318EC2E03
:101DD600ED2E442FFF30A800FF30A900FF30AA00E7
:101DE600FF30AB002408AC002508AD002608AE0085
:101DF6002708AF002008AC022108031C210F042F7E
:101E0600052FAD022208031C220F0A2F0B2FAE024C
:101E16002308031C230F102F112FAF022C08A8072D
:101E26002D0803182D0F182F192FA9072E08031890
:101E36002E0F1E2F1F2FAA072F0803182F0AAB07D6
:101E46002B08A3002A08A2002908A1002808A00040
:101E56008030F2067503FF3AF5007508031D342F2E
:101E6600352F522F0130A007003003180130A1078B
:101E7600003003180130A207003003180130A30711
:101E8600522F2408A0022508031C250FA1022608AC
:101E9600031C260FA2022708031C270FA3022308F0
:101EA600220421042004031D592F5A2F872F750859
:101EB600031D5E2F5F2F872F0030A3000030A20086
:101EC6000030A1000030A000FF2F0130A800031051
:101ED600A00DA10DA20DA30DA80B6A2FF51F742F3F
:101EE600752F762F2014751C792F7A2F7E2F0314C9
:101EF600750DF500802F0310F50D74080319842F56
:101F0600852F872F0130F402A21F8A2F8B2F682F6F
:101F1600F301F51F8F2F902F9E2F75087F39031918
:101F2600952F962F992F0130F3009E2F201C9C2F62
:101F36009D2F9E2F962F73080319A22FA32FD52FFF
:101F46000130A007003003180130A1070030031844
:101F56000130A207003003180130A307231CB42F59
:101F6600B52FD52F2008A8002108A9002208AA000D
:101F76002308AB000130AC002B0DAB0CAA0CA90C4E
:101F8600A80CAC0BBF2F2B08A3002A08A200290817
:101F9600A1002808A000740A0319D22FD32FD52F29
:101FA6000130F407740A0319D92FDA2FDF2F7408CA
:101FB600031DDE2FDF2FED2F0030A3000030A2001F
:101FC6000030A1000030A0007408031DEB2FEC2F99
:101FD600ED2FF201741CF02FF12FF32FA217F52F1E
:101FE6007F30A2057408A8000310280CA300F21F76
:101FF600FD2FFE2FFF2FA3170800503472346F34C5
:102006006734723461346D34203443346F346D3444
:1020160070346C346534743465346434003450344C
:102026006C346534613473346534203463346C3411
:102036006F3473346534203464346F346F347234DF
:10204600003435343A3453345434413452345434ED
:10205600203436343A3450344134553453344534CC
:102066000034573461347334683469346E346734F9
:1020760020344D3461346334683469346E346534E5
:102086000034773461347334683469346E346734B9
:102096002034703472346F346734723461346D3482
:1020A6000034773461347334683469346E34673499
:1020B60020344D3461346334683469346E346534A5
:1020C6000034523465346D346F34763465342034DC
:1020D60043346C346F347434683465347334003488
:1020E6007034723465347334733420346B3465342D
:1020F60079343534203474346F3420340034443425
:102106006F346F34723420346934733420346F344E
:10211600703465346E34003450347234653473343C
:102126007334203453347734693474346334683404
:1021360000345734413454344534523420344C340A
:102146004534563445344C34003450346F34773487
:102156006534723469346E34673420346F346E34C7
:10216600003441347134753461342034533474345A
:102176006F347234653400345334743461346934E2
:102186006E34203457346134733468340034453443
:1021960063346F3463346F34743474346F346E3430
:1021A6007334003442346534643420345334683430
:1021B60065346534743473340034533457343534E9
:1021C6003A34203453345434413452345434003481
:1021D600463475346E346334743469346F346E3413
:1021E6003A340034443465346C34693463346134CD
:1021F600743465347334003457346134733468345A
:1022060020344F346E346C347934003452346934AB
:102216006E34733465342B34443472347934003478
:102226005334573436343A342034533454344F34D8
:102236005034003444347234793420344F346E349C
:102246006C347934003470346F34773465347234D6
:1022560020346F346E34003457346F346F346C343A
:1022660065346E3473340034543469346D346534F3
:102276003A3420340034703472346F3467343A346C
:10228600203400344D3465346434693475346D3427
:102296000034573468346934743465347334003424
:1022A600543469346D3465343A3400345234693404
:1022B6006E347334653400344434613469346C34B8
:1022C60079340034683465346134763479340034D2
:1022D600573441345334483400344834693467340D
:1022E600683400345334703469346E340034413405
:1022F600753474346F3400344C346F3477340034AE
:102306004D34613478340034FF1B912983137F18D0
:1023160083170008840A0319FF0A08007F087F391B
:0C2326008A000408840A0319FF0A8200E0
:10288A008316031306083F388600080083160313CD
:10289A008C14FA3092008312031312110800F20109
:1028AA0001300A128A11DF270A168A110430F7004A
:1028BA003D30F600F60B5F2CF70B5F2C642C0800FA
:1028CA00F400F301741C6A2C6B2C6D2C7208F3074C
:1028DA000310F20D0310F40C7408031D752C762CEA
:1028EA00672C730808007E088A007F0882000A168F
:1028FA008A1178240A168A118000840A04087D063F
:10290A0003190034FF0A0319FE0A7C2C83120313ED
:10291A00A400F20178080A128A11DF270A168A111E
:10292A00F201F20A8312031324080A128A11DF271A
:10293A000A168A1108000A128A1505200A168A112F
:10294A000A168A1145240A168A110A168A114B2474
:10295A000A168A118B170B17831603138710071190
:10296A0083120313071187100800803083120313A0
:10297A00C7064B08A3004A08A2004908A100480854
:10298A00A0004708A7004608A6004508A500440875
:10299A00A4000A128A15A8250A168A11831203139B
:1029AA002308C7002208C6002108C5002008C40061
:1029BA0008005F34913465349134F53490344C34E2
:1029CA009134BF349034CA3490342F349134D5348E
:1029DA009034093491341D349134FF349034B43432
:1029EA0090347A3491347F3491344534913470344C
:1029FA009134833491340134003411348312031333
:102A0A00A400A001A1017208F400F5017408A20053
:102A1A007508A300241C122D132D192D2208A007B6
:102A2A000318A10A2308A10701300310A20DA30D60
:102A3A00FF3E031D1A2D0310A40C2408031D262D86
:102A4A00272D0F2D2108F3002008F2000800F201BB
:102A5A008312031322080A128A11DF270A168A111F
:102A6A004E2DF201F20A2108FF00200884000A16FE
:102A7A008A1187210A168A110A128A11DF270A1671
:102A8A008A11013083120313A0070318A10A003028
:102A9A00A107831203132108FF00200884000A16E5
:102AAA008A1187210A168A11003A031D5D2D5E2DAF
:102ABA00362D0800831203138C1C642D652DA52D59
:102ACA00013083160313C507003003180130C60707
:102ADA00003003180130C707003003180130C80757
:102AEA00203045064E300319460647044804031DA4
:102AFA007F2D802DA22D831203136B080319862DB7
:102B0A00872D8A2D0130EB02982D6B08031D8E2D1F
:102B1A008F2D982D6C080319932D942D982D013023
:102B2A00EC023C30EB00003083160313C80000307F
:102B3A00C7000030C6000030C500831203138C1092
:102B4A0071088A00700E8300FE0E7E0E0900C330E3
:102B5A00F700CD30F600F60BB02DF70BB02DF201D1
:102B6A0033300A128A11DF270A168A111B30F7003E
:102B7A009E30F600F60BBF2DF70BBF2D0000F201B9
:102B8A0033300A128A11DF270A168A11A630F60094
:102B9A00F60BCD2D0000F20133300A128A11DF271D
:102BAA000A168A11D82DD92D0000F20130300A12E6
:102BBA008A11DF270A168A11A630F600F60BE32DD2
:102BCA000000F20101300A128A11DF270A168A115F
:102BDA000430F7003D30F600F60BF12DF70BF12D1E
:102BEA00F62DF2010C300A128A11DF270A168A1111
:102BFA00A630F600F60BFF2D00000800F701F51FBE
:102C0A00072E082E0F2EF409F509F40A0319F50AFE
:102C1A000130F700F31F122E132E182EF209F309B2
:102C2A00F20A0319F30A7208730403191D2E1E2EE1
:102C3A004B2E0130F6002A2E01300310F20DF30D4F
:102C4A00FF3E031D222E0130F607F31F2D2E2E2ED6
:102C5A00212E73087502031D342E72087402031C98
:102C6A00372E382E3E2E7208F4027308031CF50321
:102C7A00F50201300310F30CF20CFF3E031D3F2E48
:102C8A000130F602031D4A2E4B2E2E2E7708031909
:102C9A004F2E502E552EF409F509F40A0319F50A98
:102CAA007508F3007408F20008008312031306186B
:102CBA005F2E602EB72E0711121187140A168A1179
:102CCA0054240A168A11823083120313A00090300A
:102CDA00A1008030A2000A168A112C250A168A1130
:102CEA00123083120313A0009030A100C030A2005A
:102CFA000A168A112C250A168A1183120313061C36
:102D0A00872E882E822E0715121587100A168A1109
:102D1A0054240A168A11EB3083120313A000903050
:102D2A00A1008030A2000A168A112C250A168A11DF
:102D3A00533083120313A0009130A100C030A200C7
:102D4A000A168A112C250A168A11243083120313B3
:102D5A00A0009030A1009030A2000A168A112C25FA
:102D6A000A168A11080083120313A101F31FBE2E4B
:102D7A00BF2EC62EF209F309F20A0319F30A01302B
:102D8A00A100F51FC92ECA2ED12EF409F509F40A9D
:102D9A000319F50A0130A106A201A30172087304FE
:102DAA000319D82ED92E0E2F0130A000E52E01309E
:102DBA000310F20DF30DFF3E031DDD2E0130A007B7
:102DCA00F31FE82EE92EDC2E01300310A20DA30D0D
:102DDA00FF3E031DEA2E73087502031DF62E7208C4
:102DEA007402031CF92EFA2E012F7208F4027308DA
:102DFA00031CF503F502221401300310F30CF20C44
:102E0A00FF3E031D022F0130A002031D0D2F0E2FBE
:102E1A00E92E21080319122F132F182FA209A3092B
:102E2A00A20A0319A30A2308F3002208F2000800E1
:102E3A0083120313A8012808803EF800FF300A16FF
:102E4A008A118B240A168A11033083120313A700EE
:102E5A008A30A6005530A500A50B312FA60B312FBD
:102E6A00A70B312F013083120313A8071030280251
:102E7A00031C402F412F202FA830A0009030A10022
:102E8A00C330A2000A168A112C250A168A11343078
:102E9A0083120313A0009030A1009130A2000A16F9
:102EAA008A112C250A168A1183120313A9012908EB
:102EBA00D03EF800FF300A168A118B240A168A11AE
:102ECA00033083120313A7008A30A6005530A500E9
:102EDA00A50B6D2FA60B6D2FA70B6D2F013083123B
:102EEA000313A90710302902031C7C2F7D2F5C2FA6
:102EFA00333083120313A700BB30A600DF30A500CE
:102F0A00A50B852FA60B852FA70B852F08008312EB
:102F1A0003130608F2003F30F2053F307206031928
:102F2A00972F982FA52F790803199C2F9D2FA52F2E
:102F3A00F901720883160313CF00C201C301FE2FE1
:102F4A003F307206031DAA2FAB2FC52F7908031D28
:102F5A00AF2FB02FC52F0130F90083160313430892
:102F6A00803AFF0080307F02031DBD2F1E304202CF
:102F7A000318C02FC12FFE2F831603134F08FF2FEC
:102F8A007908031DC92FCA2FE22F8316031343089A
:102F9A00803AFF0080307F02031DD52F1F30420286
:102FAA000318D82FD92FE22F013083160313C20733
:102FBA000318C30A0030C307FE2F7908031DE62F42
:102FCA00E72FFE2F1F308316031342064304031D07
:102FDA00EF2FF02FFE2F37307206031DF52FF62F35
:102FEA00FE2F0130C2070318C30A0030C307993005
:062FFA00FF2F3F3008002C
:02400E00FB3F76
:00000001FF
